:1000000012C02CC02BC02AC029C028C027C026C0BF
:1000100025C02EC123C09EC0C6C020C01FC01EC0A8
:100020001DC01CC01BC011241FBECFE5D4E0DEBF25
:10003000CDBF10E0A0E6B0E0E2E1F4E002C0059040
:100040000D92AE36B107D9F710E0AEE6B0E001C0D0
:100050001D92A33CB107E1F702D0DAC1D1CFCFE5C1
:10006000D4E0DEBFCDBFF89480E681BB12BA10BAEF
:10007000969A87E090E0DAD085B78F6085BF789454
:100080008FEF87BB88BBB99ABA9ABB9A88B3817F36
:1000900088BB87B38E6087BB8FB5816F8FBD8EB5F0
:1000A00081608EBD85B5816785BD959A80E690E0BB
:1000B000B1D0E0E7F0E08AE0DF011D928A95E9F730
:1000C00000E010E0EF01B9D090FF04C001501040F3
:1000D000219705C0888380917000803731F40F5FCD
:1000E0001F4F21960A30110574F3809171008936F3
:1000F00001F1873719F5609179008091780047D137
:1001000020916F0033272817390799F66091730003
:10011000809172003CD15C01609175008091740007
:1001200036D16C01609177008091760030D17C01EE
:1001300005C080916E00882309F4BBCF8A2D80957D
:100140008ABD8C2D809588BD8E2D809583BDB1CFC5
:100150008CB908951F920F920FB60F9211242F930E
:100160008F939F93EF93FF939BB12CB19871E09184
:100170007C00EF5FEF7180917B00E81711F492E053
:1001800006C0E0937C00FF27E158FF4F2083909347
:100190007A00FF91EF919F918F912F910F900FBE59
:1001A0000F901F9018951F920F920FB60F92112467
:1001B0008F939F93EF93FF9390917E0080917D00AA
:1001C000981761F0E0917D00EF5FEF71E0937D00A3
:1001D000FF27E156FF4F80818CB901C05598FF91F0
:1001E000EF919F918F910F900FBE0F901F901895D8
:1001F000282F90917E009F5F9F7180917D009817BE
:10020000E1F3E92FFF27E156FF4F208390937E0013
:10021000559A0895CF93DF93EC0102C02196E8DF51
:1002200088818823D9F7DF91CF9108952AB1286971
:100230002AB989B980E090E0089590917C0080917E
:100240007B00981719F480E091E00895E0917B001D
:10025000EF5FEF71E0937B00FF27E158FF4F2081B4
:1002600080917A009927982F8827820F911D0895F1
:100270001F920F920FB60F9211248F939F93AF93FB
:10028000BF938091BF009091C000A091C100B09138
:10029000C2000196A11DB11D8093BF009093C000C4
:1002A000A093C100B093C200BF91AF919F918F9175
:1002B0000F900FBE0F901F9018956091BF00709126
:1002C000C0008091C1009091C20027E0660F771FA7
:1002D000881F991F2A95D1F729E330E040E050E0CC
:1002E0006DD0CA01B9010895AF92BF92CF92DF924B
:1002F000EF92FF920F931F935B016C01DEDF7B0196
:100300008C01DBDF6E197F09800B910B6A157B0571
:100310008C059D05B0F31F910F91FF90EF90DF903A
:10032000CF90BF90AF900895615070408040904052
:1003300089F0DC01CB0132E0880F991FAA1FBB1F97
:100340003A95D1F70297A109B1092FB7F89401970F
:10035000F1F72FBF08951092BF001092C0001092C5
:10036000C1001092C2000895982F80538A3020F463
:10037000892F9927C0970895892F8154863018F0C6
:1003800080E090E00895892F9927C7970895FF92FC
:100390000F931F93F62E992733D0E6DF8C0184E06C
:1003A000000F111F8A95E1F78F2D992729D0DCDFE7
:1003B000800F911F1F910F91FF900895A1E21A2EB7
:1003C000AA1BBB1BFD010DC0AA1FBB1FEE1FFF1FF9
:1003D000A217B307E407F50720F0A21BB30BE40B49
:1003E000F50B661F771F881F991F1A9469F7609590
:1003F0007095809590959B01AC01BD01CF0108954A
:100400009111089581568A5108F4805285580895B3
:02041000FFCF1C
:0E04120048616C6C6F2057656C740D0A000019
:00000001FF
